:03000000020816DD
:0C081600787FE4F6D8FD75815302085D80
:0B1256000000000000000000DFF62296
:1010C600C2AFC2B27F32121256D2B27F0612125687
:0B10D600A2B2920530B2FDD2AFA2051D
:0110E10022EC
:02108100AE07B8
:10108300C2AF7D01ED601AC2B200005E7004C2B24D
:101093008002D2B27F06121256D2B2ED25E0FD8055
:0310A300E3D2AFE6
:0110A6002227
:100FB700C2AF7D01ED601EC2B20000D2B2000020B8
:100FC700B205F452068003ED42067F06121256ED73
:090FD70025E0FD80DFD2AFAF067A
:010FE00022EE
:1011AE001210C6920420040A7FCC1210817F4412C2
:0511BE001081A204B342
:0111C3002209
:100F5B001210C692042004227FCC1210817FBE1285
:100F6B001081120FB7AC07120FB7EFFEAD047C0068
:0D0F7B00E42DFFEC3E8FF01200F7A204B34E
:010F88002246
:0800030020140101123000037A
:1010FE007E01EE60135F6004D2B48002C2B4D2B53A
:0A110E00C2B5EE25E0FE80EAD2B47F
:0111180022B4
:10119700E4FF7E01EE600F30B4024207D2B5C2B55C
:0611A700EE25E0FE80EEE3
:0111AD00221F
:1011ED00D297EF25E04480FF1210FEAF051210FEDE
:0311FD00C2972274
:10122400D297EF25E04481FF1210FE121197C29766
:011234002297
:060EF9008B3E8A3F894098
:100EFF00D2977FBE1210FEE4FDEDC3940874809468
:100F0F00805015AB3EAA3FA9408D82758300120019
:0A0F1F0047FF1210FE0D80E1C2979B
:010F290022A5
:060F2A008B418A4289435D
:100F3000D2977FBF1210FEE4FDEDC3940874809435
:100F4000805015121197AB41AA42A9438D82758337
:0A0F500000EF1200740D80E1C2975B
:010F5A002274
:060CD5008B368A378938D6
:100CDB007B007A007939120F2AE4253FFFE4342098
:100CEB00AB36AA37A9388FF01200F7AB36AA37A963
:100CFB0038900002E53D120074900003E53C1200B1
:100D0B0074900004E53B120074900005E53A120064
:100D1B0074900006E539120074900007E53E02005E
:010D2B007453
:100E3C00E4F53D1200CCF53C900007120047F53B61
:100E4C00900002120047F53A900003120047F53962
:100E5C00900004120047F538900005120047F53752
:100E6C00900006120047F5367B007A007936020EA8
:010E7C00F97C
:1010A700C297C2B5E4FF121224EF54806010E4FD2A
:0E10B7007F071211ED7BFF7A007903120E3CC9
:0110C5002208
:100FE10045004600471B44004025432707001528BC
:100FF10009261630191B0D0D0C3118325E330834D9
:0A1001001C355A36423752384A397E
:020AEE00C1063F
:100EBC00300639C206E4F533C3E5339415748094D7
:100ECC00805029E53325E024E1F582E4340FF583E5
:100EDC00E493B55213E53325E024E2F582E4340FB4
:0C0EEC00F583E493FF020E7D053380CCFB
:010EF80022D7
:10123500D2B353890F438910C28EC2ABD28AD2AAC8
:011245002286
:10103300E4F58DF58BD28E30B30CAF8DC3EF9440B6
:101043007480948040F1C28EAF8DEFFEAD8B7C0037
:07105300E42DFFEC3EFE223C
:10105A00E4F58DF58BD28E20B30CAF8DC3EF94409F
:10106A007480948040F1C28EAF8DEFFEAD8B7C0010
:07107A00E42DFFEC3EFE2215
:03001300020510D3
:10051000C0E0C0D075D000C000C001C002C003C0A0
:0705200004C005C006C0077E
:1005270012105AC3EF9499EE941E4009D3EF9433F7
:10053700EE94224005C28B0205D3121033C3EF9409
:1005470066EE940E4009D3EF9400EE94124004C275
:100557008B8079E4FBEBC39404748094805069E446
:10056700FAEAC3940874809480505412105AC3EF67
:100577009439EE94014009D3EF94CEEE94024004EF
:10058700C28B8048121033D3EF9439EE9401400E9A
:10059700EF94CEEE94025006E9C313F9801ED3EF11
:1005A7009441EE94054011EF94D7EE94065009E973
:1005B700C313F94301808004C28B80100A80A274A0
:0C05C700502BF8A6010B808DD206C28BD1
:1005D300D007D006D005D004D003D002D001D0007C
:0505E300D0D0D0E03291
:10124600313233263435362537383928301B0D27C9
:100AF0009010010101010101010101010101010148
:100B00000101900001010101010101010101010147
:100B1000010101010108001009FFFFFFFFFFFFFFB6
:090B2000FFFFFFFFFFFFFFFFFFD5
:10092600E4F533C3E5339404748094805070E4F5A1
:1009360034C3E534940474809480505EE53325E036
:1009460025E024102534F8E2FFE53325E025E024F0
:10095600002534F8E2FE6F603DEE6020E53325E0C9
:1009660025E02446F582E43412F583E5822534F544
:1009760082E43583F583E493FF120E7DE53325E0AB
:1009860025E024102534F8E2FFE53325E025E024B0
:0E099600002534F8EFF2053480970533808594
:0109A4002230
:10042E00E50825E025E02409F8E625E0FFA2A4E48E
:10043E00334FFFE50825E025E02409F8A607E50877
:10044E0025E025E0240AF8E625E0FFA2A5E4334FD7
:10045E00FFE50825E025E0240AF8A607E50825E0D3
:10046E0025E0240BF8E625E0FFA2A6E4334FFFE5D6
:10047E000825E025E0240BF8A607E50825E025E091
:10048E00240CF8E625E0FFA2A7E4334FFFE508258C
:10049E00E025E0240CF8A607E4FFEFC39404748073
:1004AE0094805036E50825E025E024092FF8E6541F
:1004BE000FFD7C00700EE50825E025E024102FF8D6
:1004CE00E4F28013ED640F4C700DE50825E025E095
:1004DE0024102FF87401F20F80C00508530803E5AD
:1004EE000814600F14601114601324037013D2A04B
:1004FE00C2A322D2A3C2A222D2A2C2A122D2A1C23E
:01050E00A04C
:01050F0022C9
:0B126100D294A2909200A29192012270
:0B126C00A2009290A2019291C2942275
:101200007580FFC290D291D295AF80C295EF20E752
:01121000F6E7
:0112110022BA
:10001600AE07121261121200C290C2918E80D29562
:05002600C29502126CFE
:1011C400AE07121261121200D290C2918E80D29593
:0511D400C29502126C3F
:05000E007F0102001655
:05127F007F0F020016C4
:051284007F0C020016C2
:10121200ED7004AC078004EF2440FCEC4480FF0234
:021222000016B4
:10100B008B398A3A893B121212AB39AA3AA93B1295
:10101B00002E6013053BE53B7002053A14F91200F4
:08102B002EFF1211C480E22225
:08127700121212AF030211C4B0
:1011D9007F381200167F0C1200167F061200167F48
:0411E90001020016E9
:1010E200C0F9A4B0999282F880908883C6A1868EB6
:0C10F2007F3F1F0F87C3E1F0F8FCFEFFFA
:080B2900C107012200012300B5
:101119007580FFC294E4F5C875CBFD75CA9A85CB75
:0B112900CD85CACCD2ADD2BDD2CA2207
:10113400E5229010F293F532C3E522940B74809467
:09114400805003052222E4F5228B
:01114D00227F
:10116700ED9010E293FE742C2FF8A606EB6008743E
:081177002C2FF8E6547FF6224C
:060F89008B368A3789381F
:100F8F00E4FFEFC3940874809480501BAB36053890
:100F9F00E538AA377002053714F912002EFE7424B3
:070FAF002FF8A6060F80DBFE
:010FB6002218
:03002B00020DF9CA
:090DF900C0E0C0D075D000C000BC
:100E0200C2CF2094257580FFE59054F04523F590DC
:100E120074242523F8E6F580C3E523940E748094A8
:100E220080500405238003752300300704B29680A6
:030E320002D29653
:070E3500D000D0D0D0E03264
:100B3100C103C102011D00011E00011F00021900B5
:070B410000011B00011C0074
:100C7D00D2AF7F017E00120A831211191210A71232
:100C8D0012351211D91211AE3003FDC203120B57DA
:100C9D007F011209A57F01120A17120D7112092683
:100CAD00120EBC300213C202121134120B57121164
:100CBD007FE51F7004FF1209A53003E1C203E51F94
:080CCD0070DBFF120A1780D54D
:020A17008F3618
:100A19007B007A007937120F5B1211AEAE37E538D9
:100A29007804CEA2E713CE13D8F8F5388E37B51A65
:100A390009E519B53704E536603FAE37AF387C00B4
:100A49007D0A120096EF2430782AF2AE37AF387C4F
:100A5900007D0A120096ED2430782BF2087427F2F3
:100A6900087443F2E408F27BFE7A00792AFD7F0CD0
:090A790012100B85371985381A9B
:010A82002251
:100A8300E4FCFDFB7A10790EF8120116E47BE87A98
:100A930003F9F8120DB58F368E358D348C33C3E4DC
:100AA3009536F536E49535F53574019534F534E42A
:100AB3009533F533E5362421F536E43535F535E45C
:100AC3003534F534E43533F533AF36AE35AD34FC78
:100AD30078081201658F1D85361E5389F0438901FD
:0A0AE300851D8C851E8AD2A9D28CD5
:010AED0022E6
:03000B00020BBD28
:100BBD00C0E0C0F0C083C082C0D075D000C000C0FE
:0D0BCD0001C002C003C004C005C006C0077F
:100BDA00851D8C851E8A051CC3E51C94C8748094E7
:100BEA00804016751C00D202051BE51B940A74800E
:0C0BFA0094804005751B00D20312042EED
:100C0600D007D006D005D004D003D002D001D00042
:0B0C1600D0D0D082D083D0F0D0E032EC
:100C2100416C61726D2061742000506C6561736567
:100C3100205365742054696D650053657420416CBF
:100C410061726D00FF81BDBD81BDBD81FFFFFF00F0
:100C5100FFFFFFFFFFFFC3FFFF81FFFFFFC3FFC3D5
:100C6100FF81FFFFFF005A5A5A7E00FFFF81F7C143
:0C0C7100D7D781FFFFF7FF81FFDBBDFF3D
:0E0B4800C10801450701463001470001440085
:100B57007B007A007948120CD5E54CC4540FFDE4AC
:100B6700FB7F05121167E54C540FFD7B017F0412D3
:100B77001167E54DC4540FFDE4FB7F03121167E5D0
:100B87004D540FFD7B017F02121167E54EC4540FD0
:100B9700FDE4FB7F01121167E54E540FFDE4FBFFF7
:100BA700121167E54F75F008A42445F9740C35F068
:060BB700FA7BFF020F892A
:1009A500E544B54B03EF6069E548C4540F2430783E
:1009B5002AF2E548540F243008F2E548C4F854F00B
:1009C500C8E549C4540F48540F2430782CF2E54942
:1009D500540F243008F208742DF2E54AC4540F244C
:1009E5003008F2E54A540F243008F208742DF2E578
:1009F5004BC4540F243008F2E54B540F243008F251
:100A0500E408F27BFE7A00792AFDFF12100B854B74
:010A1500449C
:010A160022BD
:100D71007BFF7A0C79217D01E4FF12100BE545C45C
:100D8100540F2430782AF2E545540F243008F20834
:100D9100743AF2E546C4540F243008F2E546540F84
:100DA100243008F2E408F27BFE7A00792A7D017F83
:040DB1000902100B18
:10117F00E54CB5450EE54DB54609200803B20722EB
:08118F00C20722C208C20722B8
:100771007820E2FC08E2FDECC4F854F0C8EDC45462
:100781000F48540F2430782AF2ED540F243008F228
:1007910008742DF27822E2FFC4540F2430782DF230
:1007A100EF540F243008F208742DF27823E2FFC4CD
:1007B100540F24307830F2EF540F243008F20874CB
:1007C1002DF27827E2540F24307833F2087420F2A6
:1007D1007824E2FFC4540F24307835F2EF540F240B
:1007E1003008F208743AF27825E2FFC4540F24303D
:1007F1007838F2EF540F243008F2E408F27BFF7AE4
:100801000C792BFDFF12100B7BFE7A00792A7D01FA
:05081100E4FF02100BE2
:100D2C007828E2FFC4540F2430782AF2EF540F24B1
:100D3C003008F208743AF27829E2FFC4540F2430D8
:100D4C00782DF2EF540F243008F2E408F27BFF7A8E
:100D5C000C793BFDFF12100B7BFE7A00792A7D018A
:050D6C00E4FF02100B82
:10114E00E4F51F12128412000E120B577F011209C2
:09115E00A57F01120A17020D71B0
:1006BB00E51F64017079E547B40A00506A9006CFD4
:1006CB00F82828730206ED0206EF0206F10206F384
:1006DB000206FC02070502070E020717020720029B
:1006EB000729805D8064806B7547047D017F0680E0
:1006FB00717547057D017F0780687547067D017F12
:10070B0009805F7547077D017F0B80567547087D14
:10071B00017F0C804D7547097D017F0E8044754725
:10072B000A7D017F0F803BE4F5477D01FF8033E5B8
:10073B001F64027030E547146010146016240270B9
:10074B001B7547017D017F0180187547027D017F75
:10075B0003800F7547037D017F048006E4F5477D19
:06076B0001FF1212122230
:1005E800E51F64016003020684E547B40A0040037E
:1005F80002067B900602F828287302062002062AC3
:1006080002063302063C02064502064E020657025F
:10061800066002066902067275470A7D017F0F02AD
:1006280006B7E4F5477D01FF0206B77547017D016E
:100638007F01807B7547027D017F038072754703C8
:100648007D017F0480697547047D017F06806075A0
:1006580047057D017F0780577547067D017F098023
:100668004E7547077D017F0B80457547087D017FE3
:100678000C803C7547097D017F0E8033E51F6402BD
:100688007030E5471460101460152402701A75471D
:10069800037D017F048018E4F5477D01FF80107514
:1006A80047017D017F0180077547027D017F0312A5
:0306B800121222F9
:02029B008F369C
:10029D00E53624D0F537FF7E00D394097480948021
:1002AD00400302042DE51F640160030203CDE54701
:1002BD00B40A0040030203BA9002CCF82828730256
:1002CD0002EA02030B02032502033B02034B020366
:1002DD00600203700203800203950203A5EF75F01F
:1002ED0010A4FF7820E2FC08E2540FFDEC45F01855
:1002FD00F2ED4F08F2AB367D01E4FF0203C8782022
:10030D00E2FE08E254F0FFEE18F2EF453708F2ABCB
:10031D00367D017F010203C8E537C454F0FF782212
:10032D00E2540F4FF2AB367D017F030203C87822F2
:10033D00E254F04537F2AB367D017F04807DE53721
:10034D00C454F0FF7823E2540F4FF2AB367D017F9A
:10035D000680687823E254F04537F2AB367D017F95
:10036D000780587827E254F04537F2AB367D017F90
:10037D00098048E537C454F0FF7824E2540F4FF25A
:10038D00AB367D017F0B80337824E254F04537F294
:10039D00AB367D017F0C8023E537C454F0FF782503
:1003AD00E2540F4FF2AB367D017F0E800E7825E2C1
:1003BD0054F04537F2AB367D017F0F121277805D19
:1003CD00E51F6402705AE54714601C14602924026D
:1003DD00703AE537C454F0FF7828E2540F4FF2AB72
:1003ED00367D01E4FF80337828E254F04537F2ABD7
:1003FD00367D017F018023E537C454F0FF7829E273
:10040D00540F4FF2AB367D017F03800E7829E254F5
:10041D00F04537F2AB367D017F041212771206BB21
:01042D0022AC
:1008A200E51F7033751F017820E548F208E549F22B
:1008B20008E54AF208E54BF208E54CF208E54DF28C
:1008C20008E54EF208E54FF212000E120771754765
:1008D200FF1206BB02127FE51F64017024751F021E
:1008E2007826F27BFE7A007920120E3C7828E545C4
:1008F200F208E546F212000E120D2C7547FF0206B1
:10090200BBE4F51F7828E2F54508E2F546121284A9
:1009120012000E120B577F011209A57F01120A174E
:04092200120D71221F
:100E7D008F35E535C39430400AE535D394395003A9
:100E8D0002029BE535642570030205E8E53564270C
:100E9D0070030206BBE535640D70030208A2E5354B
:0F0EAD00641B700AE51F7003D2082212114E2237
:10082200020C7DE493A3F8E493A34003F68001F263
:1008320008DFF48029E493A3F85407240CC8C333D7
:10084200C4540F4420C8834004F456800146F6DFA6
:10085200E4800B0102040810204080900AEEE47E3E
:10086200019360BCA3FF543F30E509541FFEE4939B
:10087200A360010ECF54C025E060A840B8E493A362
:10088200FAE493A3F8E493A3C8C582C8CAC583CA8D
:10089200F0A3C8C582C8CAC583CADFE9DEE780BE45
:010B5600009E
:10002E00BB010689828A83E0225002E722BBFE02D0
:09003E00E32289828A83E4932203
:10004700BB010CE58229F582E5833AF583E022506E
:1000570006E92582F8E622BBFE06E92582F8E222B8
:0D006700E58229F582E5833AF583E49322D2
:10007400F8BB010DE58229F582E5833AF583E8F0C2
:10008400225006E92582C8F622BBFE05E92582C86E
:02009400F22256
:10009600C2D5EC30E709B2D5E4C39DFDE49CFCEE85
:1000A60030E715B2D5E4C39FFFE49EFE120178C384
:1000B600E49DFDE49CFC800312017830D507C3E47F
:0600C6009FFFE49EFE22F4
:1000CC00BB010A89828A83E0F5F0A3E022500687FF
:1000DC00F009E71922BBFE07E3F5F009E3192289C1
:0B00EC00828A83E493F5F074019322F4
:1000F700BB010A89828A83F0E5F0A3F0225006F754
:0F01070009A7F01922BBFE06F3E5F009F3192250
:10011600E88FF0A4CC8BF0A42CFCE98EF0A42CFC88
:100126008AF0EDA42CFCEA8EF0A4CDA8F08BF0A406
:100136002DCC3825F0FDE98FF0A42CCD35F0FCEB65
:100146008EF0A4FEA9F0EB8FF0A4CFC5F02ECD392A
:0F015600FEE43CFCEAA42DCE35F0FDE43CFC2297
:100DB500C2D5E830E70FB2D5E4C39BFBE49AFAE469
:100DC50099F9E498F8EC30E717B2D5120DEB120259
:100DD50009E4C39BFBE49AFAE499F9E498F88003E3
:100DE50012020930D50DE4C39FFFE49EFEE49DFD8C
:040DF500E49CFC225C
:10016500E8600FECC313FCED13FDEE13FEEF13FF78
:03017500D8F1229C
:10017800BC000BBE0029EF8DF084FFADF022E4CC6B
:10018800F875F008EF2FFFEE33FEEC33FCEE9DEC34
:10019800984005FCEE9DFE0FD5F0E9E4CEFD22ED7A
:1001A800F8F5F0EE8420D21CFEADF075F008EF2FC4
:1001B800FFED33FD4007985006D5F0F222C398FDB5
:0501C8000FD5F0EA2252
:1001CD0075F008758200EF2FFFEE33FECD33CDCCE9
:1001DD0033CCC58233C5829BED9AEC99E58298406C
:1001ED000CF582EE9BFEED9AFDEC99FC0FD5F0D649
:1001FD00E4CEFBE4CDFAE4CCF9A88222B800C1B973
:10020D000059BA002DEC8BF084CFCECDFCE5F0CBB0
:10021D00F97818EF2FFFEE33FEED33FDEC33FCEBE9
:10022D0033FB10D703994004EB99FB0FD8E5E4F9A4
:10023D00FA227818EF2FFFEE33FEED33FDEC33FC91
:10024D00C933C910D7059BE99A4007EC9BFCE99A85
:10025D00F90FD8E0E4C9FAE4CCFB2275F010EF2FCA
:10026D00FFEE33FEED33FDCC33CCC833C810D707CA
:10027D009BEC9AE899400AED9BFDEC9AFCE899F805
:0E028D000FD5F0DAE4CDFBE4CCFAE4C8F92298
:00000001FF
