:030000000200DA21
:0C00DA00787FE4F6D8FD75811302006702
:100003001200AFC3940A748094804057E41200C86E
:10001300AB11AA12A9131200AF7024AB0EAA0FA939
:10002300101200AF25E01200C8AB0EAA0FA91012E0
:1000330000AF6480702DAB11AA12A913048021AB09
:100043000EAA0FA9101200AFC3131200C8AB0EAA59
:100053000FA9101200AF64017009AB11AA12A91302
:040063001200C8229D
:10006700750801E4F509F50AC294D293D292D291A8
:10007700C290758901758CB8F58AD28CE508F4F5BC
:1000870080308DFDC28D758CB8E4F58A050AF50EB2
:10009700750F00751008F511751200751309FB7AB5
:0800A70000790A12000380D465
:1000AF00BB010689828A83E0225002E722BBFE024F
:0900BF00E32289828A83E4932282
:1000C800BB010689828A83F0225002F722BBFE0117
:0200D800F32211
:00000001FF
