:0D057C00C100C101011E00011C00011D0095
:10075A0075985053890F438920AB07AA06E4F9F824
:10076A007F807E70FDFC12060CEFF404F58D858DFA
:08077A008BC2ABD2ACD28E227F
:1007AA008B378A388939AF051DEF601AC201AB371A
:1007BA000539E539AA387002053814F9120026F508
:0707CA00992001E280FB22EF
:0606C3008B218A2289232D
:1006C900EDD3951E4002AD1EE4FFEFC39D501B7490
:1006D900002FF8E2FEAB210523E523AA22700205CB
:0F06E9002214F9EE12003F0F80E0E4F51EAF057A
:0106F80022DF
:10068B00E51ED39400748094804029E51C651E60A0
:10069B0007851E1CE4F51D22E51DC3941E74809472
:1006AB00805014EF251DF51DC3941E74809480405B
:0706BB0006D20022E4F51C49
:0106C2002215
:1007D10030001BC2007BFE7A0079587D281206C3C7
:1007E100AD077BFE7A0079581206507F01227F0007
:0107F10022E5
:030023000206F9D9
:1006F900C0E0C0D075D000C000C007309818C298BB
:10070900C3E51E944074809480500BAF1E051E747F
:10071900002FF8E599F2309904C299D201D007D097
:0607290000D0D0D0E03248
:030000000203C137
:0C03C100787FE4F6D8FD75816002040826
:10000E004765744D6573736167650053656E7465FE
:04001E00640030004A
:0F05890001150001160001170004180000000002
:10072F00D2AF7F017E0012044D7F807E2512075AC3
:10073F001207F2E51770071207D18F1780F5E5172B
:0B074F00640170EF1203308F1780E888
:100650008B218A2289238D24852482758300E412CC
:100660000051E4FDFF120782C3E5249410748094C6
:1006700080500DC374109524FBE4FDAF2412083B99
:0B0680007BFF7A00790E7D0B0207AAB9
:10082A00E4F51BF51AF519F5187B107D01FF02088E
:01083A003B82
:06027800AF1BAE1AAD1928
:0E027E008B488A49894A8F4E8E4D8D4C8C4B91
:10028C00E4F54FF550E47B0AFAF9F8AF4EAE4DADFC
:10029C004CAC4B1200FEAF03AE4F054F74512EF811
:1002AC00A607AF4EAE4DAD4CAC4BE47B0AFAF9F859
:1002BC001200FE8F4E8E4D8D4C8C4BE4FFFEFDFCE0
:1002CC00AB4EAA4DA94CA84BD312019050B7E54F99
:1002DC002550F550AF4F154FD3EF94007480948098
:1002EC00401D7451254FF8E62430FFAB48054AE514
:1002FC004AAA497002054914F9EF12003F80D5ABA8
:10030C0048054AE54AAA497002054914F9740D12C8
:10031C00003FAB48AA49A94A740A12003F05500590
:03032C0050AF507F
:01032F0022AB
:020530008F3703
:10053200E47F0AFEFDFCAB1BAA1AA919A818120037
:1005420073A804A905AA06AB07E4FCFDFEEB253758
:10055200F51BEE3AF51AED39F519EC38F5187B0072
:100562007A007938FC1202781F1FC374109FFF7B38
:0A057200007A0079387D010207824B
:0204C6008F2481
:1004C800E524C394304011E524D39439500AE52437
:0E04D80024D0FF120530804AE524640D702CFC
:1004E600FB7A007927AC181202788F267B007A00F7
:1004F6007927AD261207AA12082A7BFF7A007919F6
:0A0506007D017F09120782E4F5254C
:10051000801BE524641B701212082A7BFF7A007985
:0F052000207D017F0F1207828000752501AF2516
:01052F0022A9
:10044D0075240075231075220E752100E4FCFDAB9B
:10045D0024AA23A922A821120073E47BE87A03F9C8
:10046D00F81200FE8F248E238D228C21C3E4952457
:10047D00F524E49523F52374019522F522E49521C5
:10048D00F521E5242421F524E43523F523E4352253
:10049D00F522E43521F521AF24AE23AD22FC7808F9
:1004AD001201A18F158524165389F04389018515F5
:0804BD008C85168AD2A9D28CAD
:0104C5002214
:03000B000205C625
:1005C600C0E0C0F0C083C082C0D075D000C000C0FB
:1005D60001C002C003C004C005C006C00785158C53
:1005E60085168A7F0112068B1201B4D007D006D079
:1005F60005D004D003D002D001D000D0D0D082D014
:0606060083D0F0D0E032C9
:100806007580FFC290D291D295AF80C295EF20E756
:01081600F6EB
:0108170022BE
:10084C00AE07120806C290C2918E80D295C2952234
:10085C00AE07120806D290C2918E80D295C2952214
:10081800ED7004AC078004EF2440FCEC4480FF0238
:02082800084C7A
:100782008B488A49894A120818AB48AA49A94A12D1
:1007920000266013054AE54A7002054914F9120061
:0807A20026FF12085C80E22230
:10083B00120818AF031BEF60077F2012085C80F3D0
:01084B00228A
:1007F2007F3812084C7F0C12084C7F0612084C7F7F
:040802000102084C9B
:0C086C00313233343536373839301B0D4B
:100598008C4C0101010101010101010101018C40A3
:1005A8000101010101010101010101010108000C22
:0D05B80009FFFFFFFFFFFFFFFFFFFFFFFF39
:10033000E4F521C3E5219404748094804003020312
:10034000BEE4F522C3E522940374809480506AE5EC
:100350002175F003A4244C2522F8E2FFE52175F075
:1003600003A424402522F8E2FE6F6046EE6024E5F7
:100370002175F003A4246CF582E43408F583E5824A
:100380002522F582E43583F583E493FF1204C68FBA
:10039000238003752301E52175F003A4244C252255
:1003A000F8E2FFE52175F003A424402522F8EFF2DE
:1003B00080037523010522808B0521020333AF23BF
:0103C000221A
:1001B400E50875F003A42409F8E625E0FFA2A4E409
:1001C400334FFFE50875F003A42409F8A607E508F2
:1001D40075F003A4240AF8E625E0FFA2A5E4334F52
:1001E400FFE50875F003A4240AF8A607E50875F0EE
:1001F40003A4240BF8E625E0FFA2A6E4334FFFE5B1
:100204000875F003A4240BF8A607E4FFEFC39403D6
:10021400748094805036E50875F003A424092FF8FF
:10022400E6540FFD7C00700EE50875F003A4244C21
:100234002FF8E4F28013ED640F4C700DE50875F0AF
:1002440003A4244C2FF87401F20F80C0050853084E
:1002540003E50814600F1460111460132403701371
:10026400D2A0C2A322D2A3C2A222D2A2C2A122D2CB
:03027400A1C2A084
:010277002264
:1003CD0002072FE493A3F8E493A34003F68001F210
:1003DD0008DFF48029E493A3F85407240CC8C33331
:1003ED00C4540F4420C8834004F456800146F6DF00
:1003FD00E4800B010204081020408090057CE47E0F
:10040D00019360BCA3FF543F30E509541FFEE493F4
:10041D00A360010ECF54C025E060A840B8E493A3BB
:10042D00FAE493A3F8E493A3C8C582C8CAC583CAE6
:10043D00F0A3C8C582C8CAC583CADFE9DEE780BE9E
:0105C5000035
:10002600BB010689828A83E0225002E722BBFE02D8
:09003600E32289828A83E493220B
:10003F00BB010689828A83F0225002F722BBFE01A0
:02004F00F3229A
:10005100F8BB010DE58229F582E5833AF583E8F0E5
:10006100225006E92582C8F622BBFE05E92582C891
:02007100F22279
:10007300E88FF0A4CC8BF0A42CFCE98EF0A42CFC2C
:100083008AF0EDA42CFCEA8EF0A4CDA8F08BF0A4AA
:100093002DCC3825F0FDE98FF0A42CCD35F0FCEB09
:1000A3008EF0A4FEA9F0EB8FF0A4CFC5F02ECD39CE
:0F00B300FEE43CFCEAA42DCE35F0FDE43CFC223B
:1000C20075F008758200EF2FFFEE33FECD33CDCCF5
:1000D20033CCC58233C5829BED9AEC99E582984078
:1000E2000CF582EE9BFEED9AFDEC99FC0FD5F0D655
:1000F200E4CEFBE4CDFAE4CCF9A88222B800C1B97F
:100102000059BA002DEC8BF084CFCECDFCE5F0CBBC
:10011200F97818EF2FFFEE33FEED33FDEC33FCEBF5
:1001220033FB10D703994004EB99FB0FD8E5E4F9B0
:10013200FA227818EF2FFFEE33FEED33FDEC33FC9D
:10014200C933C910D7059BE99A4007EC9BFCE99A91
:10015200F90FD8E0E4C9FAE4CCFB2275F010EF2FD6
:10016200FFEE33FEED33FDCC33CCC833C810D707D6
:100172009BEC9AE899400AED9BFDEC9AFCE899F811
:0E0182000FD5F0DAE4CDFBE4CCFAE4C8F922A4
:10060C00C2D5E830E70FB2D5E4C39BFBE49AFAE419
:10061C0099F9E498F8EC30E717B2D51206421200BB
:10062C00FEE4C39BFBE49AFAE499F9E498F880039E
:10063C001200FE30D50DE4C39FFFE49EFEE49DFD49
:04064C00E49CFC220C
:10019000EB9FF5F0EA9E42F0E99D42F0E89C45F0C5
:0101A000223C
:1001A100E8600FECC313FCED13FDEE13FEEF13FF3C
:0301B100D8F12260
:00000001FF
