:03000000020003F8
:0C000300787FE4F6D8FD75811802004AF1
:1000E2000E0868656C6C6F2068757368616E0A0033
:0B010200EF1FAC0670011E4C70F622CF
:0F00F300759850758920758DFD758BFDD28E2205
:08010D008F993099FDC299227F
:10008F008B168A178918AB16AA17A9181200B46015
:10009F00130518E5187002051714F91200B4FF12B2
:0500AF00010D80E222BA
:1000CD001200F37B007A00790812008F7F207E4E9C
:0500DD0012010280EE9B
:10000F000200CDE493A3F8E493A34003F68001F23A
:10001F0008DFF48029E493A3F85407240CC8C333F2
:10002F00C4540F4420C8834004F456800146F6DFC1
:10003F00E4800B01020408102040809000E2E47E6F
:10004F00019360BCA3FF543F30E509541FFEE493B6
:10005F00A360010ECF54C025E060A840B8E493A37D
:10006F00FAE493A3F8E493A3C8C582C8CAC583CAA8
:10007F00F0A3C8C582C8CAC583CADFE9DEE780BE60
:0100F200000D
:1000B400BB010689828A83E0225002E722BBFE024A
:0900C400E32289828A83E493227D
:00000001FF
