:03000000020003F8
:0C000300787FE4F6D8FD758108020099B2
:10009900C294D293D292D291C290759850E4F587C6
:1000A900758920D2AFD2AC758BFD758DFDD28E804E
:0100B900FE48
:03002300020026B2
:10002600C0E0C0F0C083C082C0D0C2ACC29885997F
:1000360008E50824CFB40800504C90004E75F00334
:10004600A4C58325F0C5837302006602006B020017
:100056007002007502007A02007F020084020089A5
:100066007580FE80217580FD801C7580FB8017756C
:1000760080F780127580EF800D7580DF80087580AF
:10008600BF800375807FD2ACD0D0D082D083D0F031
:03009600D0E03285
:00000001FF
